:020000040800F2
:2000000068A600202D0800085B3600085D3600086136000865360008693600080000000058
:200020000000000000000000000000006D3600086F36000800000000713600087336000808
:20004000470800084708000847080008470800084708000847080008EF330008013400082F
:2000600013340008F9340008253400084708000847080008470800084708000847080008E8
:2000800047080008470800084708000847080008A9330008470800084708000837340008FF
:2000A00047080008470800084708000847080008673400084708000847080008470800083C
:2000C0004708000847080008470800084708000847080008934B00084708000847080008D9
:2000E0006F35000847080008470800084708000847080008470800084708000847080008F3
:20010000470800084708000847080008470800084708000847080008470800084708000827
:200120004708000847080008470800084708000800F002F800F079F80AA090E8000C824424
:200140008344AAF10107DA4501D100F06EF8AFF2090EBAE80F0013F0010F18BFFB1A43F053
:2001600001031847406602006066020010F8013B0A4413F0030408BF10F8014B1D1108BF00
:2001800010F8015B641E05D010F8016B641E01F8016BF9D1002D15D010F8014B03F00C0317
:2001A0000C2BA1EB04040ABF10F8013BA4EB8314A4EB032405F1010314F8016B5B1E01F8A7
:2001C000016BF9D5914238BF10F8013BD1D370470023002400250026103A28BF78C1FBD8AD
:2001E000520728BF30C148BF0B607047662913F03983642910F0D080732910F0B685002083
:2002000070471FB510F0C3F910F098FE04000020002112F059FD401C60600020002112F005
:200220003DFDE0601FBD10B510BD10F0FBFF1146FFF7E7FF03F0F8FA11F07AFA03B4FFF7A2
:20024000F2FF03BC04F04AFC0B49D1F800C04A685CF8043B1068184442F8040B8C4528BFBD
:20026000A1F1DC0C8A4228BFA1F1DC02C1F800C04A6020F000407047009A002070B505468D
:200280000E461446A2B23146284603F0B7FE70BD70B504460D462946204603F0D4FE70BD19
:2002A0002DE9F84F0646894615461C46DDE90A7898F80000009098F801A02644FC48007B47
:2002C00000F0030020B1012831D002284CD118E000BF297880232341194009B1514600E000
:2002E00000990A463046761C4946FFF7C7FF601C0446082801D100246D1C781E071EE8D1D9
:2003000032E000BF287880212141084020B1524649463046FFF7B2FF761C601C0446082884
:2003200001D100246D1C781E071EEBD11CE000BF287880212141084058B149463046FFF71D
:20034000A7FF8346CBF1010249463046FFF796FF00BF761C601C0446082801D100246D1C19
:20036000781E071EE4D100BF00BFBDE8F88F2DE9FF4F83B0054616469A46DDE9107896F869
:20038000009054465544CA48007B00F0030010B1022848D148E0B8F1000F24D000BFC4F1CE
:2003A00003004FEA400BCBF10601C020084100EA090040FA0BF00290029818F800000190D5
:2003C00028466D1C019A0499FFF758FF601C0446042804D10024701C064690F80090781E30
:2003E000071EDCD11FE000BFC4F103004FEA400BCBF10601C020084100EA090040FA0BF01D
:20040000029028466D1C029A0499FFF737FF601C0446042804D10024701C064690F8009013
:20042000781E071EE0D14FE0B8F1000F27D000BFC4F103004FEA400BCBF10601C02008418B
:2004400000EA090040FA0BF00290029848B1029818F8000001902846019A0499FFF70EFF6B
:2004600000BF6D1C601C0446042804D10024701C064690F80090781E071ED9D123E000BF32
:20048000C4F10300400002900298C0F10601C020084100EA0900029940FA01FBBBF1000FD8
:2004A00004D05A4628460499FFF7E8FE6D1C601C0446042804D10024701C064690F800907D
:2004C000781E071EDCD100BF00BF07B0BDE8F08F2DE9FF4F83B0054616469A46DDE91078EF
:2004E00096F80090544655447148007B00F0030010B1022848D148E0B8F1000F24D000BFED
:20050000C4F101004FEA800BCBF10401F020084100EA090040FA0BF00290029818F80000E3
:20052000019028466D1C019A0499FFF7A7FE601C0446022804D10024701C064690F8009087
:20054000781E071EDCD11FE000BFC4F101004FEA800BCBF10401F020084100EA090040FAB4
:200560000BF0029028466D1C029A0499FFF786FE601C0446022804D10024701C064690F8FB
:200580000090781E071EE0D14FE0B8F1000F27D000BFC4F101004FEA800BCBF10401F02077
:2005A000084100EA090040FA0BF00290029848B1029818F8000001902846019A0499FFF7CE
:2005C0005DFE00BF6D1C601C0446022804D10024701C064690F80090781E071ED9D123E037
:2005E00000BFC4F10100800002900298C0F10401F020084100EA0900029940FA01FBBBF15B
:20060000000F04D05A4628460499FFF737FE6D1C601C0446022804D10024701C064690F84F
:200620000090781E071EDCD100BF00BF07B0BDE8F08F2DE9F0470746894614461D46DDF86E
:2006400020801B48007B00F0030010B102283FD11CE0B8F1000F0DD009E0267818F80620E0
:2006600049463846FFF70AFE6D1E7F1C641C002DF3DC0AE007E0227849463846FFF7FEFD64
:200680006D1E7F1C641C002DF5DC21E0B8F1000F10D00AE026782EB118F806204946384673
:2006A000FFF7ECFD6D1E7F1C641C002DF2DC0EE0B897002009E0267826B13246494638467A
:2006C000FFF7DCFD6D1E7F1C641C002DF3DC00BF00BFBDE8F08770B504460D462946204678
:2006E000FFF7D6FDC6B2C6F1010229462046FFF7C5FD70BD2DE9F04104460E4615464A4873
:20070000007B00F0010040B104E031462046FFF7E2FF641CAC42F8DD06E0434F7B78AAB2DA
:20072000B1B2A0B203F0A5FCBDE8F0812DE9F04106460C4615463C48007B00F0010040B139
:2007400004E021463046FFF7C6FF641CAC42F8DD06E0354F7B78AAB2A1B2B0B203F06CFD10
:20076000BDE8F081F8B504460D4616461F462E484078BBB2B2B2A9B20090A0B203F0AEFD7E
:20078000F8BD2DE9FC5F82460D4616469846DDF830B0DDF83890109F002433E0BBF1010FEA
:2007A00009D0BBF1020F0FD0BBF1040F15D0BBF1080F23D11AE06119CDE900674A465046B2
:2007C0000F9BFFF76DFD19E06119CDE900674A4650460F9BFFF7CBFD10E06119CDE900676A
:2007E0004A4650460F9BFFF773FE07E0611933464A4650460097FFF71CFF00BF00BF0D98F7
:200800008144641C4445C9DBBDE8FC9F00BF00BF70477047704710B503F0D8FA002010BD0C
:2008200000BF00BF70470000B89700200948804709480047FEE7FEE7FEE7FEE7FEE7FEE706
:20084000FEE7FEE7FEE7FEE704480549054A064B70470000A732000831010008689A0020D6
:2008600068A60020689E0020689E002031490143314A1160704770B5002100230F22C478C7
:2008800004B32D4C246804F4E064C4F5E064210AC1F10403CA40447804FA03F18478144077
:2008A00021430901254C0678A155047804F01F050124AC4005786D11AD0005F1E025C5F8E0
:2008C000004109E0047804F01F050124AC401C4D0678761145F8264070BD1A4A0A40024318
:2008E000154B1B1F1A60704739B1134A121D12680243114B1B1D1A6006E00F4A121D126802
:2009000082430D4B1B1D1A607047042808D14FF0E021096941F004014FF0E022116107E0CA
:200920004FF0E021096921F004014FF0E0221161704700000000FA050CED00E000E400E0E9
:2009400080E100E080FFFF1F10B50446FA48844208D10121401501F0DBFA0021601501F005
:20096000D7FA17E0F548844208D10121001501F0CFFA0021201501F0CBFA0BE0F0488442ED
:2009800008D10121C80301F0C3FA00214FF4004001F0BEFA10BD30B50246002000235068A1
:2009A000E84C20400D790C6844EA0524204350609068E54C2040D1E902542C434D7944EA43
:2009C000450420439060D06A20F470000C7C641EE4B2234340EA0350D06230BD0021016099
:2009E000017141718160C16001210174704721B1826842F00102826003E0826822F00102CE
:200A00008260704721B1826842F48072826003E0826822F480728260704710B50023CBB2A4
:200A20001AB144681C43446002E044689C43446010BD816841F0080181607047014600203C
:200A40008A6802F008020AB1012000E000207047816841F0040181607047014600208A6805
:200A600002F004020AB1012000E00020704721B1826842F4A002826003E0826822F4A002F0
:200A800082607047014600208A6802F480020AB1012000E00020704710B50A460021002300
:200AA000416821F46041531E41EA4331416010BD21B1426842F40062426003E0426822F400
:200AC000006242607047F0B504460D4600200021092D11DDE068A5F10A0606EB460707265B
:200AE00006FA07F18843A5F10A0606EB460603FA06F10843E0600CE0206905EB45070726F3
:200B000006FA07F1884305EB450603FA06F108432061072A0FDA606B561E06EB86071F26FB
:200B200006FA07F18843561E06EB860605FA06F10843606322E00D2A0FDA206BD61F06EB6A
:200B400086071F2606FA07F18843D61F06EB860605FA06F10843206310E0E06AA2F10D06EA
:200B600006EB86071F2606FA07F18843A2F10D0606EB860605FA06F10843E062F0BD21B1CA
:200B8000826842F48012826003E0826822F48012826070470146C86C80B2704766484C3025
:200BA0000068704721B1426842F48062426003E0426822F480624260704721B1426842F450
:200BC0008052426003E0426822F48052426070470A460021816821F4E04111438160704757
:200BE00021B1826842F40042826003E0826822F400428260704721B1826842F40212826039
:200C000003E0826822F4021282607047014600208A6802F400120AB1012000E00020704750
:200C2000F0B504461546002000220026092911DDE068A1F10A0707EB470C072707FA0CF285
:200C40009043A1F10A0707EB470703FA07F21043E0600CE0206901EB410C072707FA0CF27A
:200C6000904301EB410703FA07F210432061A06BC0F30156EF1C06F1010CA7EB0C0707EBE8
:200C8000870C1F2707FA0CF29043EF1C06F1010CA7EB0C0707EB870701FA07F21043A0632B
:200CA000F0BD10B50A4600210023816B21F44011531E41EA0351816310BD08B500230093C8
:200CC0000090009B0B440093009B1A6008BD08B5024600200090009201F12800009B1844D5
:200CE00000900098006880B208BD0A4600214168164B1940114341607047416282627047AF
:200D00000A460021416821F01F0111434160704740B109490831096841F40001064A08322F
:200D2000116007E004490831096821F40001024A08321160704700000024014000280140D2
:200D4000003C0140FFFEF0FFFDF7F1FFFFFD3FFF0246002013680B400BB1012000E0002001
:200D60007047CA430260704770B502460020002300240B125568CEB205EA060415681D4095
:200D800015B10CB1012000E0002070BD00220A12D34303607047000010B50446FE488442F9
:200DA00009D10121480601F0C0F800214FF0007001F0BBF808E00121880601F0B6F8002174
:200DC0004FF0806001F0B1F810BD30B5024600200023146824F002041460146844F001045E
:200DE000146000E05B1C546804F001041CB94FF6FF74A342F6D1546804F001040CB90020A0
:200E00006CE08C79012C04D1146844F08004146003E0146824F080041460CC79012C04D125
:200E2000146844F04004146003E0146824F0400414600C7A012C04D1146844F0200414604F
:200E400003E0146824F0200414604C7A012C04D1146844F01004146003E0146824F0100400
:200E600014608C7A012C04D1146844F00804146003E0146824F008041460CC7A012C04D18B
:200E8000146844F00404146003E0146824F0040414608C78A407CD7844EA05640D7944EAF8
:200EA00005444D7944EA05540D886D1E2C43D461146824F001041460002300E05B1C546899
:200EC00004F001041CB14FF6FF74A342F6D1546804F001040CB1002000E0012030BD10B5A3
:200EE0000021837A012202FA03F1AC4A126842F00102AA4B1A60A94A1C3212688A43A74B33
:200F00001C331A60027BCAB9A44A0C3212688A43A24B0C331A604288C38842EA03439F4A7F
:200F20004032847A42F834300288838842EA03439A4A4032847A02EBC4025360027B012A3A
:200F400019D1964A0C3212680A43944B0C331A604288038842EA0343904A4032847A42F8DF
:200F60003430C288838842EA03438C4A4032847A02EBC4025360C27A3AB9884A121D1268F0
:200F80008A43864B1B1D1A6006E0844A121D12680A43824B1B1D1A60028932B97F4A143253
:200FA00012688A437D4B14331A600289012A06D17A4A143212680A43784B14331A60427BC2
:200FC000012A06D1754A1C3212680A43734B1C331A60724A126822F00102704B1A6010BD67
:200FE00000218171C171017241728172C1728170C170032101710221417101210180704779
:201000006649096841F00101644A11601146096843F60E729143614A11601146096841EAFA
:20102000002111601146096821F001011160704721B1026842F48032026003E0026822F432
:20104000803202607047E1B1026842F0800202604FF4C272125842F480734FF4C2721350CF
:201060004FF4CA72125842F480734FF4CA7213504FF4D272125842F480734FF4D272135078
:201080001BE0026822F0800202604FF4C272125822F480734FF4C27213504FF4CA72125848
:2010A00022F480734FF4CA7213504FF4D272125822F480734FF4D2721350704710B502469D
:2010C0000020936803F08063B3F1806F00D110E0936803F00063B3F1006F01D1012008E08C
:2010E000936803F08053B3F1805F01D1022000E00420042879D002F5C07303EB00131B6891
:2011000003F0010402F5C07303EB00131C600B7A7BB94B7A0C8843EA445302F5C07404EB40
:2011200000142468234302F5C07404EB0014236010E00B7A4C6843EAC4034C7A234302F5B8
:20114000C07404EB00142468234302F5C07404EB001423608B7A03F00F038B7202F5C07384
:2011600003EB00135B6823F00F0402F5C07303EB00135C6002F5C07303EB00135B688C7AAA
:20118000234302F5C07404EB001463608B7B1C064B7B44EA034403E0006400400066004068
:2011A0000B7B44EA0323CC7A234302F5C07404EB0014A3608B7C1C064B7C44EA03440B7C8C
:2011C00044EA0323CC7B234302F5C07404EB0014E36002F5C07303EB00131B6843F00104B7
:2011E00002F5C07303EB00131C6010BD10B50246002321B1012907D002290FD109E090688C
:20120000F94C00EA04030BE09068F84C00EA040306E09068F64C00EA040301E0002300BFAC
:2012200000BFF44C181BA34216D007DC83B16FF08060184470B1022818D111E0B0F5007FB6
:2012400010D0ED4C204448B1B0F5003F0ED10BE002230DE000230BE0002309E0002307E034
:20126000012305E0012303E0012301E0002300BF00BFD8B210BD21B1012907D002290FD183
:2012800009E0826842F0800282600AE0826842F40042826005E0826842F40002826000E0EE
:2012A00000BF00BF704710B500F5D87303EB01131B6803F004031372137A53B900F5D87317
:2012C00003EB01131B6840F2FF7404EA5353136009E000F5D87303EB01131B686FF060442C
:2012E00004EAD303536000F5D87303EB01131B6803F00203537200F5D87303EB01135B68F0
:2013000003F00F03937200F5D87303EB01135B681B0AD37400F5D87303EB01139B68D372C8
:2013200000F5D87303EB01139B681C0A147300F5D87303EB01139B681C0C547300F5D87347
:2013400003EB01139B681B0E937300F5D87303EB0113DB68D37300F5D87303EB0113DB6809
:201360001C0A147400F5D87303EB0113DB681C0C547400F5D87303EB0113DB681B0E937495
:2013800021B9C36843F02003C36003E0036943F02003036110BD21B9C26842F02002C2607F
:2013A00003E0026942F02002026170470246002019B9D36803F0030006E0012903D11369A6
:2013C00003F0030000E00020704710B502460B4600204FF6FF71BBB9146824F0020444F0EF
:2013E0000104146000E0491E546804F00304012C01D00029F7D1546804F00304012C01D0D2
:20140000002032E0012030E0012B13D1146824F00304146000E0491E546804F003040CB193
:201420000029F8D1546804F003040CB100201CE001201AE0022B17D1146824F0010444F031
:201440000204146000E0491E546804F00304022C01D00029F7D1546804F00304022C01D06E
:20146000002002E0012000E0002010BD014600200A6822F0010242F002020A604A6802F04A
:201480000302022A00D10120704701464FF6FF7200200B6823F002030B6000E0521E4B685C
:2014A00003F00203022B01D1002AF7D14B6803F00203022B00D001207047014600208A6969
:2014C00002F070007047014600208A69100E7047014600208A69C2F3074070471AB1436940
:2014E0000B43436102E043698B434361704710B50246002001F4700343B19369C1F31304F3
:2015000023400BB101202DE000202BE001F0807343B15368C1F3130423400BB1012021E0B4
:2015200000201FE001F0006343B19368C1F3130423400BB1012015E0002013E001F00073D2
:2015400043B1D368C1F3130423400BB1012009E0002007E01369C1F3130423400BB10120DA
:2015600000E0002010BD0022244B994202D10023836111E0C1F3130201F000730BB1C2605C
:201580000AE001F080630BB1026105E001F000630BB1826000E0426070470246002002EA0A
:2015A00001030BB1012000E00020704770B504460D46002660692840002872D0B5F5807F67
:2015C00069D01DDC082D42D006DC012D2DD0022D31D0042D7FD134E0102D3ED0202D42D016
:2015E000402D78D145E00000030000040003000800000310000100080001FFF77000F0305B
:20160000B5F5004F61D009DCB5F5007F4AD0B5F5806F4DD0B5F5006F5DD150E0B5F5803FE2
:201620002DD0B5F5003F56D12FE0A0685549FFF7B4FF064651E0E0680321FFF7AEFF064667
:201640004BE0E0680821FFF7A8FF064645E0E0681021FFF7A2FF06463FE020690321FFF7C2
:201660009CFF064639E020690821FFF796FF064633E020691021FFF790FF06462DE060686E
:201680000821FFF78AFF064627E060681021FFF784FF064621E0A0690121FFF77EFF0646A6
:2016A0001BE01BE0A0690221FFF777FF064614E0A0690421FFF771FF06460EE00BE0A0699A
:2016C0007021FFF76AFF064607E060680421FFF764FF064601E0002600BF00E00026304613
:2016E00070BDB1F5007F3AD00FDC202928D006DC01291CD004291DD0082940D11DE04029A8
:2017000021D0B1F5807F3AD126E0B1F5004F31D006DCB1F5806F25D0B1F5006F2FD124E0A7
:20172000B1F5803F12D0B1F5003F28D111E0154A826025E00822C26022E01022C2601FE0AC
:20174000082202611CE01022026119E00822426016E01022426013E00422426010E004220B
:2017600042600DE0042242600AE0002282610422426005E0002282610422426000E000BF0A
:2017800000BF704701010100002044490860091D0860091D0860091D086041483F491431BB
:2017A0000860704700213D498279002A3AD00A46126803689A430B461A600A1D126803684B
:2017C0009A430B1D1A60027911440A6803681A430A60324A0832126803689A432F4B0833E9
:2017E0001A601A1D126803689A432C4B0C331A604279102A0ED11A1F126803681A43274B85
:2018000008331A601A1D126803681A43234B0C331A600DE02149427911440A6803681A43D2
:201820000A6005E0027911440A6803689A430A6070470021016001710C21417100218171C8
:2018400070471649103109680143144A10321160704701460020114A143212680A400AB12D
:20186000012000E0002070470C49143108607047014600200022094B1B6803EA0102074B35
:2018800014331B680B4013B10AB1012000E0002070470249143108607047000000040140E8
:2018A000FFFF0F0010B50446CC48844208D10121042000F02DFB0021042000F029FB46E07C
:2018C000C748844208D10121082000F021FB0021082000F01DFB3AE0C248844208D10121CE
:2018E000102000F015FB0021102000F011FB2EE0BD48844208D10121202000F009FB002142
:20190000202000F005FB22E0B848844208D10121402000F0FDFA0021402000F0F9FA16E033
:20192000B348844208D10121802000F0F1FA0021802000F0EDFA0AE0AE48844207D1012138
:20194000801500F0E5FA0021A01500F0E1FA10BD10B50121084600F0DBFA0021012000F089
:20196000D7FA10BD2DE9F041024600250026002000230024002791F803C00CF00F0591F87C
:2019800003C00CF0100CBCF1000F03D091F802C04CEA050591F800C0BCF1000F31D01468D0
:2019A00000202BE04FF0010C0CFA00F3B1F800C00CEA03069E4220D183004FF00F0C0CFA9B
:2019C00003F7BC4305FA03FC4CEA040491F803C0BCF1280F06D14FF0010C0CFA00FCC2F8C3
:2019E00014C00AE091F803C0BCF1480F05D14FF0010C0CFA00FCC2F810C0401C0828D1D3FB
:201A00001460B1F800C0BCF1FF0F34DD546800202EE000F1080C4FF0010808FA0CF3B1F83C
:201A200000C00CEA03069E4221D183004FF00F0C0CFA03F7BC4305FA03FC4CEA040491F874
:201A400003C0BCF1280F05D100F1080C08FA0CF8C2F8148091F803C0BCF1480F07D100F197
:201A6000080C4FF0010808FA0CF8C2F81080401C0828CED35460BDE8F0814FF6FF7101808D
:201A8000022181700421C17070470246002093680B400BB1012000E00020704701468868AC
:201AA00080B2704702460020D3680B400BB1012000E0002070470146C86880B270470161F9
:201AC0007047416170470AB1016100E041617047C16070474FF480320A43826181618261DE
:201AE00082698269704702460020434B18684FF68073184040EA021008433F4B1860704713
:201B00003E49C8617047F0B50A46002300240021002500F00046B6F1004F02D1364EF169FF
:201B200001E0354E7168C0F3034583B200F44016B6F5401F08D121F070612F4E766826F0B8
:201B400070662D4F7E6012E000F48016B6F5801F06D1032606FA05F4A14341F0706106E0CA
:201B6000460D360103FA06F6B14341F0706122B1460D360103FA06F6314300F00046B6F145
:201B8000004F02D11C4EF16101E01B4E7160F0BD30B500228B071C0F0F2303FA04F2164B55
:201BA00008338C1053F824309343134C08348D1044F8253023468C1053F824308C07240FA6
:201BC00000FA04F423430C4C08348D1044F8253030BD0A49DC310860704700000008014036
:201BE000000C0140001001400014014000180140001C014000200140000001400000204238
:201C0000DF48006840F00100DD49086008464068DC490840DA49486008460068DA49084027
:201C2000D74908600846006820F4802008600846406820F4FE0048604FF41F008860704799
:201C4000CF49096821F48031CD4A11601146096821F480211160B0F5803F03D0B0F5802F33
:201C60000ED106E0C649096841F48031C44A116007E0C349096841F4A021C14A116000E004
:201C800000BF00BF704710B501460022002300204A11012A02D1BA4C236806E0022A02D1CF
:201CA000B74C236A01E0B64C636A01F01F02012494401C400CB1012000E0002010BD38B5E5
:201CC000002000900024002500BF3120FFF7DBFF05460098401C00900098B0F5A06F01D03F
:201CE000002DF2D03120FFF7CEFF08B1012400E00024204638BD01460020A14A106820F0CA
:201D0000F80040EAC10010607047A04908607047024600209A4B586820F47C1042EA0103D4
:201D20001843974B5860704798490866704701460020934A506820F0030008435060704730
:201D40008F48406800F00C007047014600208C4A506820F0F0000843506070470146002043
:201D6000874A506820F4E06008435060704701460020834A506820F4605040EAC100506089
:201D8000704729B17E4A527A02437D4B5A7204E07B4A527A82437A4B5A7270477B49D831F6
:201DA0000860704701460020754A506820F440400843506070470021714A20321170704A77
:201DC00082F82010012802D004280AD104E001216B4A2032117005E00521694A2032117038
:201DE00000E000BF00BF70476949086070476449096A0143624A1162704765494439086030
:201E0000704730B500210022002400235C4D6D6805F00C0121B1042905D0082923D105E03E
:201E20005C4D056022E05B4D05601FE0544D6D6805F47012524D6D6805F48034022505EB5D
:201E400092421CB9544D554305600BE04C4D6D6805F400351DB1504D5543056002E04D4DD0
:201E60005543056002E04B4D056000BF00BF444D6D6805F0F0010909484D6B5C0568DD40C4
:201E800045603F4D6D6805F4E061090A434D6B5C4568DD4085603A4D6D6805F46051C90A10
:201EA0003E4D6B5C4568DD40C560354D6D6805F44041890B3A4D6B5CC568B5FBF3F5056103
:201EC00030BD29B12E4A526902432D4B5A6104E02B4A526982432A4B5A61704729B1284A84
:201EE00092690243264B9A6104E0254A92698243234B9A61704729B1214AD2690243204BD3
:201F0000DA6104E01E4AD26982431D4BDA61704729B11B4AD2680243194BDA6004E0184A3E
:201F2000D2688243164BDA60704729B1144A12690243134B1A6104E0114A12698243104BA5
:201F40001A61704712494039086070470F49C86470470B49C87170470948406A40F08070C2
:201F600007494862704701460020054A92680A400AB1012000E00020704701498872704728
:201F8000001002400000FFF8FFFFF6FE000042428004424200127A0000093D000000002088
:201FA0001000002010B50446FE48844208D10121C014FFF7ADFF0021E014FFF7A9FFC4E00E
:201FC000B4F1804F08D101210846FFF7AEFF00210120FFF7AAFFB8E0F348844208D101212C
:201FE0000220FFF7A2FF00210220FFF79EFFACE0EE48844208D101210420FFF796FF0021FF
:202000000420FFF792FFA0E0E948844208D101210820FFF78AFF00210820FFF786FF94E0C4
:20202000E448844208D101211020FFF77EFF00211020FFF77AFF88E0DF48844208D1012100
:202040002020FFF772FF00212020FFF76EFF7CE0DA48844208D101214014FFF759FF002113
:202060006014FFF755FF70E0D548844209D10121C804FFF74DFF00214FF40020FFF748FFA4
:2020800063E0D048844209D101210805FFF740FF00214FF48010FFF73BFF56E0CA488442AF
:2020A00009D101214805FFF733FF00214FF40010FFF72EFF49E0C548844208D101214020C1
:2020C000FFF733FF00214020FFF72FFF3DE0C048844208D101218020FFF727FF00218020D0
:2020E000FFF723FF31E0BB48844208D101218015FFF71BFF0021A015FFF717FF25E0B64869
:20210000844209D101210804FFF702FF00214FF48030FFF7FDFE18E0B048844209D1012143
:202120004804FFF7F5FE00214FF40030FFF7F0FE0BE0AB48844208D101218804FFF7E8FEEB
:2021400000214FF48020FFF7E3FE10BD00220288944B98420ED0994B98420BD0B0F1804F8B
:2021600008D0914B984205D0904B984202D0904B984204D14FF68F731A404B881A438D4B42
:20218000984207D08C4B984204D04FF6FF431A40CB881A4302808B8883850B880385814BF4
:2021A00098420BD0854B984208D08B4B984205D08A4B984202D08A4B984201D10B7A038653
:2021C00001238382704770B5002400220023058C4FF6FE7635400584028C8388048B4FF6DC
:2021E0008F752C40B51E2C400D882C43751E2A400D892A434D882A436A4DA8420BD06F4DB2
:20220000A84208D0744DA84205D0744DA84202D0734DA84213D14FF6F7752A404D892A4313
:202220004FF6FB752A408D882A434FF6FF652B404FF6FF552B408D892B43CD892B4383809A
:202240000483CD888586028470BD70B5002400220023058C4FF6EF7635400584028C838884
:20226000048B48F6FF752C404FF6FF452C400D884FF6FF7606EA05252C434FF6DF752A40E1
:202280000D8906EA05152A434D8806EA05152A43444DA84202D0494DA8421DD14FF67F75F1
:2022A0002A404D894FF6FF7606EA05152A434FF6BF752A408D8806EA05152A434FF6FF35C5
:2022C0002B404FF2FF752B408D8906EA85052B43CD8906EA85052B4383800483CD880587CC
:2022E000028470BD70B5002400220023058C4FF6FF6635400584028C8388848B4FF68F7573
:202300002C404FF6FC752C400D882C434FF6FF552A400D894FF6FF7606EA05252A434D887C
:2023200006EA05252A431F4DA84202D0234DA8421DD14FF2FF752A404D894FF6FF7606EA07
:2023400005252A434FF6FF352A408D8806EA05252A434EF6FF752B404DF6FF752B408D890C
:2023600006EA05152B43CD8906EA05152B4383808483CD888587028470BD70B5002200238F
:202380000024058C4EF6FF7635400584038C8488828B48F6FF752A404FF6FF452A400D8885
:2023A00020E00000002C01400004004000080040000C0040001000400014004000340140BF
:2023C000004C0140005001400054014000180040001C004000200040004001400044014030
:2023E000004801404FF6FF7606EA05252A434DF6FF752B400D8906EA05352B434D8806EAFE
:2024000005352B43FA4DA84202D0FA4DA84208D14BF6FF752C408D894FF6FF7606EA85158C
:202420002C4384808283CD88A0F84050038470BD828B4FF2FF331A408283828B4FF6FF7350
:2024400003EA01231A4382837047F0B50C461546002200210026078C4EF6FF7C07EA0C0741
:202460000784828B018C4FF6FF7707EA043640F6FF473A404FF6FF7707EA05273A434FF6C1
:20248000FF7707EA03373A43D94FB8420ED0D94FB8420BD0B0F1804F08D0D74FB84205D0E4
:2024A000D64FB84202D0D64FB84206D14DF6FF77394046F48057394305E047F6FF57394085
:2024C00044F48057394382830184F0BD828B4FF6F3731A408283828B0A4382837047F0B568
:2024E0000C461546002200210026078C4FF6FF6C07EA0C070784828B018C4FF6FF7707EAAE
:2025000004264FF60C773A404FF6FF7707EA03172F433A43B64FB8420ED0B64FB8420BD0E3
:20252000B0F1804F08D0B44FB84205D0B34FB84202D0B34FB84206D14FF6FF57394046F492
:202540008077394305E04FF2FF57394044F48077394382830184F0BD028B4FF2FF331A40D7
:202560000283028B4FF6FF7303EA01231A4302837047F0B50C461546002200210026078C9A
:202580004FF6EF7C07EA0C070784028B018C4FF6FF7707EA041640F6FF473A404FF6FF776B
:2025A00007EA03373A434FF6FF7707EA05273A438F4FB8420ED08F4FB8420BD0B0F1804F45
:2025C00008D08D4FB84205D08C4FB84202D08C4FB84206D14FF6DF77394046F01007394348
:2025E00005E04FF65F77394044F01007394302830184F0BD028B4FF6F3731A400283028B40
:202600000A4302837047F0B50C46154600220021068C4FF6FE773E400684028B018C4FF6E9
:202620000C7632407E1C06EA03162E433243704EB0420ED06F4EB0420BD0B0F1804F08D0BD
:202640006D4EB04205D06D4EB04202D06C4EB04206D14FF6FD76314044F00106314305E039
:202660004FF6F576314044F00106314302830184F0BD70B505460C465D4885420ED05D4822
:2026800085420BD0B5F1804F08D05B48854205D05A48854202D05A48854200D100E000BFF8
:2026A000208850B92389A28861882846FFF7ABFFE1882846FFF79EFF25E0208804280AD17E
:2026C0002389A28861882846FFF753FFE1882846FFF742FF17E0208808280AD12389A288F7
:2026E00061882846FFF7FBFEE1882846FFF7EEFE09E02389A28861882846FFF7A6FEE188C2
:202700002846FFF795FE70BD2DE9F04105460C4600260127608808B9022600E00026A08864
:20272000012801D1022700E001272088A0B92389A28861882846FFF766FFE1882846FFF717
:2027400059FF23893A4631462846FFF712FFE1882846FFF701FF13E02389A288618828461C
:20276000FFF707FFE1882846FFF7F6FE23893A4631462846FFF747FFE1882846FFF73AFF49
:20278000BDE8F0810A884B881A438B881A43CB881A430B891A434B891A438B891A43A0F816
:2027A000442070474FF6FF71818000210180C1804180017270470021018041808180C180D5
:2027C000018141818181C1817047002101804180012181800021C1800181704700210180F7
:2027E00041808180C18001814181818170470000002C01400034014000040040000800406B
:20280000000C004021B1028842F00102028004E002884FF6FE731A400280704731B1B0F818
:20282000442042F40042A0F8442005E0B0F84420C2F30E02A0F8442070471AB183890B4332
:20284000838102E083898B43838170478182704741EA0203A0F8483070471AB183890B4327
:20286000838102E083898B438381704701894FF6F8721140018170470A46002101894FF6DA
:202880008F73194011430181704730B504460D4629462046FFF7F0FF208940F00700208193
:2028A00030BD2DE9F04104460D4616461F46602D06D13B46012231462046FFF75AFE05E06E
:2028C0003B46012231462046FFF79DFE29462046FFF7D2FF208940F007002081BDE8F081B3
:2028E00030B50C4600210189C9B24FF6FF7505EA0325154325432943018130BD2DE9F041C9
:2029000005460E4617469846002443463A4631462846FFF7E5FF2C894FF6F870044044F017
:2029200007044FF68F70044044F070042C81BDE8F081F0B504460D4616461F463B4632469D
:2029400029462046FFF7CCFF208940F480402081F0BD0185828270470A46002101884FF676
:202960008F731940114301807047F0B50C4615461E460021002200230189028B038C4FF669
:20298000F877394021434FF6FC473A4040F201173A434FF6DD773B404FF6FF7707EA061745
:2029A0002F433B43018102830384F0BD0A460021018B4FF68F7319401143018370470A4670
:2029C0000021018B48F6FF7319404FF6FF7303EA02231943018370470A460021818B4FF61F
:2029E0008F7319401143818370470A460021818B48F6FF7319404FF6FF7303EA02231943C2
:202A00008183704721B1028842F08002028004E002884FF67F731A400280704721B1828855
:202A200042F00402828004E082884FF6FB731A408280704721B1828842F00802828004E0AA
:202A400082884FF6F7731A408280704721B1828842F00102828004E082884FF6FE731A4099
:202A6000828070470A460021018B4FF6F77319401143018370470A460021018B4FF2FF7359
:202A800019404FF6FF7303EA02231943018370470A460021818B4FF6F773194011438183A0
:202AA00070470A460021818B4FF2FF7319404FF6FF7303EA02231943818370470A46002185
:202AC000018B4FF6FB7319401143018370470A460021018B4FF6FF3319404FF6FF7303EA5E
:202AE00002231943018370470A460021818B4FF6FB7319401143818370470A460021818B05
:202B00004FF6FF3319404FF6FF7303EA02231943818370470A460021018B4FF67F73194078
:202B20001143018370470A460021018BC1F30E014FF6FF7303EA02231943018370470A4696
:202B40000021818B4FF67F7319401143818370470A460021818BC1F30E014FF6FF7303EAC5
:202B600002231943818370470A460021018C4FF6FD7319401143018470470A460021018C7F
:202B80004FF6F77319401143018470470A460021018C4FF6DF7319404FF6FF7303EA0213F6
:202BA0001943018470470A460021018C4FF67F7319404FF6FF7303EA02131943018470479E
:202BC0000A460021018C4FF6FF5319404FF6FF7303EA02231943018470470A460021018CA8
:202BE0004FF2FF7319404FF6FF7303EA02231943018470470A460021018C4DF6FF7319405C
:202C00004FF6FF7303EA023319430184704730B5002301248C40A3B2048C9C430484048C6E
:202C200002FA01F5ADB22C43048430BD30B5002304248C40A3B2048C9C430484048C02FA8B
:202C400001F5ADB22C43048430BD70B50346002000241846183001258D40ACB21D8CA54301
:202C60001D8409B1082909D100EB6100056825F0700505600568154305600EE00D1FC5F34A
:202C80004E052844056825F4E045056005684FF6FF7606EA02263543056070BD21B10288C0
:202CA00042F00202028004E002884FF6FD731A400280704721B1028842F00402028004E0AC
:202CC00002884FF6FB731A400280704721B1828842F08002828004E082884FF67F731A4013
:202CE0008280704702884FF6F7731A40028002880A430280704782884FF68F731A40828049
:202D000082880A438280704702894FF6F8731A40028102890A430281704702894FF67F73B7
:202D20001A40028102890A430281704781847047818570478186704701877047818770476F
:202D4000A0F84010704702884FF6FF431A40028002880A43028070470146888E704701467C
:202D6000088F70470146888F70470146B1F8400070470146888C70470146088D704702461C
:202D80000020138A0B400BB1012000E000207047CA430282704730B50246002000230024BB
:202DA000158A05EA0103958905EA010413B10CB1012000E0002030BDCA4302827047000098
:202DC00010B50446FB48844209D101218803FFF79FF800214FF48040FFF79AF832E0F648CB
:202DE000844209D101214804FFF79FF800214FF40030FFF79AF825E0F048844209D101211D
:202E00008804FFF792F800214FF48020FFF78DF818E0EB48844209D10121C804FFF785F8FB
:202E200000214FF40020FFF780F80BE0E548844208D101210805FFF778F800214FF4801060
:202E4000FFF773F810BD2DE9F04786B005460E460024A24600BFA1460027B08900B100BFA0
:202E60002F462C8A4CF6FF700440F08804432C82AC894EF6F3100440B088318908437189CE
:202E800008430443AC81AC8A4FF6FF400440B0890443AC8201A8FEF7B4FFC648874202D1CC
:202EA000DDF810A001E0DDF80CA0A88900F4004040B10AEBCA0000EB0A1031684900B0FB84
:202EC000F1F807E00AEBCA0000EB0A1031688900B0FBF1F86420B8FBF0F0040120096421DE
:202EE00001FB1089A88900F4004040B1322000EBC900B0FBF1F000F00700044308E03220DD
:202F000000EB09106421B0FBF1F000F00F0004432C8106B0BDE8F0874FF4165101600021AB
:202F20008180C18001810C21418100218181704710B502460020108A4FF2FF0318400B880F
:202F40004C8823438C882343CC8823431843108210BD0021018041808180C180704721B11B
:202F6000828942F40052828104E082894DF6FF731A4082817047F0B50346002400260025A6
:202F8000002040F66A17B94200D100BF1846C1F3421401F01F06012707FA06F5012C01D12E
:202FA0000C3004E0022C01D1103000E014301AB107682F43076002E00768AF430760F0BD23
:202FC0001AB1838A0B43838202E0838A8B4383827047028A4FF6F0731A400282028A0A4362
:202FE0000282704782894FF2FF731A40828182890A438281704721B1828942F00202828153
:2030000004E082894FF6FD731A4082817047028A4FF6DF731A400282028A0A4302827047E3
:2030200021B1028A42F48042028204E0028A4BF6FF731A4002827047C1F308028280704787
:2030400001468888C0F308007047818941F0010181817047028BD2B20283028B42EA01223F
:2030600002837047028B02F47F420283028B0A430283704721B1828A42F02002828204E01B
:20308000828A4FF6DF731A408282704721B1828A42F01002828204E0828A4FF6EF731A4061
:2030A0008282704721B1828A42F00802828204E0828A4FF6F7731A408282704721B18289A6
:2030C00042F40042828103E08289C2F30E028281704721B1828A42F40062828204E0828A9E
:2030E0004FF2FF731A4082827047828A4FF6FB731A408282828A0A438282704721B1828AF9
:2031000042F00202828204E0828A4FF6FD731A408282704702460020B1F5007F00D100BF9E
:2031200013880B400BB1012000E00020704701F40072B2F5007F00D100BFCA4302807047B2
:2031400070B50246002400230025002040F66A16B14200D100BFC1F3421501F01F030126F8
:2031600006FA03F3012D02D19689334006E0022D02D1168A334001E0968A33400C12012612
:2031800006FA04F41688344013B10CB1012000E0002070BD10B50022002340F66A14A142B5
:2031A00000D100BF0A1201249440A3B2DC43048010BD000000380140004400400048004020
:2031C000004C0040005000400CB50020019000906C48006840F480306A49086000BF694846
:2031E000006800F4003000900198401C0190009818B90198B0F5A06FF1D16248006800F4AF
:20320000003010B10120009001E0002000900098012843D15C48006840F010005A4908604F
:203220000846006820F0030008600846006840F00200086053484068524948600846406891
:2032400048600846406840F4806048600846406820F47C1048600846406840F4E81048600C
:203260000846006840F08070086000BF4548006800F000700028F9D04248406820F00300C6
:20328000404948600846406840F00200486000BF3C48406800F00C000828F9D10CBD10B5BE
:2032A000FFF792FF10BD10B53648006840F00100344908600846406834490840314948601C
:2032C00008460068324908402E4908600846006820F4802008600846406820F4FE00486014
:2032E0004FF41F008860FFF7DAFF4FF000602949086010BD10B5002100200022214B5B6818
:2033000003F00C0121B1042906D0082928D107E0214B224C236027E01F4B204C236023E007
:20332000184B5B6803F47010164B5B6803F48032022303EB904022B9194B4343174C236095
:203340000DE0104B5B6803F4003323B1144B4343124C236003E0104B4343104C236003E018
:203360000D4B0E4C236000BF00BF064B5B68C3F303130C4CE15C094B1B68CB40074C23606D
:2033800010BD000000100240002002400000FFF8FFFFF6FE08ED00E000127A00140000202E
:2033A00000093D001800002010B5B44A0021B448FDF779FFB14840680121B1EB106F15D17F
:2033C000AE48406800F47F00B0F5881F0ED1002405E0AA480B30005DAA490855641C082C1A
:2033E000F7D3002400E0641C052CFCD310BD10B50120FEF73DFA10B10120FEF74AFA10BDB8
:2034000010B50220FEF734FA10B10220FEF741FA10BD10B50420FEF72BFA10B10420FEF7E5
:2034200038FA10BD10B51020FEF722FA10B11020FEF72FFA10BD10B52020FEF719FA50B19D
:203440002020FEF726FA9048007808B9012000E000208D4908704020FEF70AFA10B140201D
:20346000FEF717FA10BD10B501218807FFF793FC002840D001218807FFF79EFC83480068D2
:20348000401C824908608248006840F6130188422ED180480068401C7E49086008460068E7
:2034A0000A2819D17C480068012815D1002008607A48006801280BD1002077490860012095
:2034C00000F0D8F800F006F9002000F0D3F812E00120724908600EE07148006801280AD119
:2034E00070490860012140F60C0007F0A2FD02E001206949086010BD1CB56B4800680128B2
:2035000000D11CBD012000F0B5F80820FEF7B0F9B0B10820FEF7BDF903210020FEF738FBDD
:203520000820009000208DF804000C208DF8050000208DF806006846FEF734F900F018FAF7
:2035400003210020FEF724FB0820009000208DF804000C208DF8050001208DF806006846A2
:20356000FEF720F9002000F085F800BFC9E71CB54D480068012800D11CBD012000F07AF81D
:203580004FF40060FEF774F928B34FF40060FEF780F90B210020FEF7FBFA4FF400600090D1
:2035A00000208DF804000C208DF8050000208DF806006846FEF7F6F83C480068012834D156
:2035C00000F058F801203A49086001F0D4FD002000F050F829E04FF40040FEF749F920B3EF
:2035E0004FF40040FEF755F90F210020FEF7D0FA4FF40040009000208DF804000C208DF889
:20360000050000208DF806006846FEF7CBF82348006850B9012000F02DF80120214908608F
:2036200001F040FE002000F025F80F210020FEF7AFFA4FF40840009000208DF804000C2050
:203640008DF8050001208DF806006846FEF7AAF8002000F00FF800BF8EE7704700BFFEE749
:2036600000BFFEE700BFFEE700BFFEE7704770477047704780F31088704700008C320020E2
:2036800000640040983000203000002038000020C4000020280000202C0000203C01002021
:2036A00034010020D4000020380100205C000020D000002008B508E0DC49009102E0009926
:2036C000491E009100990029F9D1011EA0F10100F2D108BD10B5D648006809286CDD002048
:2036E000D34908600120D3490860D348B0F900000BF0C2F9012140F6050007F09AFCCF4826
:20370000006840F60D01884205D1CD48B0F900000BF0B2F987E0C948006840F60E0188420A
:2037200005D1C848B0F900000BF0A6F97BE0C348006840F60F01884205D1C148B0F90000FA
:203740000BF09AF96FE0BD48006840F61301884222D1BD48B0F900000BF08EF9BB4800687D
:2037600001280DD1B848B0F9000009F0A0FD0020B7490860012140F6140007F05AFC52E090
:20378000B348006801284ED1B2490860012140F60C0007F04EFC46E0A848006840F61501AC
:2037A000884205D1AC48B0F900000BF065F93AE0AAA00CF081FD36E0AC480068012805D124
:2037C0000020AA49086004F02DF92CE0A8480068012805D10020A649086005F07AF822E011
:2037E000A4480068012811D10020A2490860A248006810B905F0CFF915E0002095490860C4
:2038000001209249086005F080FB0CE09B480068012808D100209949086099480068994906
:20382000086006F034FC10BDE6B04FF4C872964968460CF07FFF1020ADF896010C208DF8F6
:2038400095011F208DF8930111208DF8920107208DF891011E208DF89001FFF724FD482020
:2038600001F0E6F801F000FE01F0F0FA01F077FB01F016FE01F088FA4FF4165001F03DF904
:2038800001F00EFE4FF4165001F0C0F909F037F800F0A3FB7D4807F057FC642200217C48A8
:2038A00006F0FCFF02F072FC00221146794806F0F5FF5CE078A00CF0FFFC57E001F008FB1D
:2038C000044678480068012806D1FFF703FF002080F3108800BF00BF002001F09BFA724974
:2038E0000860002C42D00846214602686FA00CF0E3FC012C08D15148006840F60D01884204
:203900002CD103F0DDFA29E0022C1DD14B48006840F60D01884221D16C48006801280FD19B
:203920006B4857490968405C30B900205349086001205049086011E00120504908600DE0F8
:2039400001204E49086009E0032C07D0042C02D103F008FE02E05FA00CF0AEFC61480068C4
:2039600008B9012000E000205E490860A6E7A1E730B5EBB000244FF4C8725B4907A80CF0D1
:20398000D9FE5A48006801284ED12C48006840F61501884248D105A801F088FF54483949B0
:2039A0000968455C01F07BF93DA001F09EF9012409E0291B4F4A52F8210001F07EF938A095
:2039C00001F093F9641CAC42F3DD9DF814009DF815109DF816209DF81730CDE90032CDE984
:2039E00002109DF81930BDF81A2043A107A80CF06FFC07A801F079F94A48C068494989689F
:203A0000CDE900104748436847A1026807A80CF05FFC07A801F069F94CA107A80CF058FC60
:203A200007A801F062F900BF6BB030BD808D5B003800002038010020B2000020C4000020F5
:203A4000AE000020B0000020B60000201C01002034010020D4000020C0000020C2DFBCAD82
:203A6000B3F6CECACCE2C1CB00000000EC000020F000002018010020C8000020200100204D
:203A8000240100207C010020303A01082C4F0108A8AC0108D0AC0108BFAACABCB2E2CAD44A
:203AA0000D0A00005C00002034000020B0B4BCFC3A204B45593D256420B1BBB0B4CFC22059
:203AC00020616463203D2025640D0A00300100208A7E0020B4EDCEF3B0B4BCFCB0B4CFC295
:203AE0000D0A0000A4012242C03B01082C01002004020020207F0020BCECB2E2CAB1BCE419
:203B00003A253032642F253032642F2530326420253032643A253032643A253032640D0AE0
:203B200000000000D8000020D0D4B1F03A257320C4EAC1E43A257320BBE9B7F13A257320D3
:203B4000CCE5D0CD3A25730D0A0000002020202020202020BDA1BFB5C6C0B9C0B4F2D3A143
:203B6000B1A8B8E6B5A50D0A0D0A0D0A0D0A0000002105E0002200E0521C002AFCD0491CC7
:203B80008142F7D37047704710B50446FFF7FBFF4FF40041F948FDF794FF4FF48051F7488C
:203BA000FDF78DFF4FF48041F448FDF788FFF448C06800F47F40F249C8600846C068E1B247
:203BC0000843EF49C8604914EC48FDF77AFF0120FFF7CEFF4FF40051E848FDF770FF012010
:203BE000FFF7C6FF4FF40041E448FDF768FF10BD10B50446FFF7C7FF4FF40041DF48FDF7C8
:203C000060FF4FF48051DD48FDF75BFF4FF48041DA48FDF754FFDA48C06800F47F40D84933
:203C2000C8600846C068E1B20843D549C8604914D248FDF746FF0120FFF79AFF4FF40051CE
:203C4000CE48FDF73CFF0120FFF792FF4FF40041CA48FDF734FF10BD70B505460C462846BD
:203C6000FFF792FF2046FFF7C3FF70BD10B50446E0B2FFF7BDFF2012FFF7BAFF10BD10B5AC
:203C8000FFF781FF4FF40041BC48FDF71AFF4FF48051BA48FDF713FF4FF40051B748FDF776
:203CA0000EFF4FF08830B64908604FF48041B348FDF707FF0120FFF75BFFB1488068C4B2D8
:203CC0004FF48041AD48FDF7FAFE4FF40041AB48FDF7F7FE4FF03330A9490860204610BD70
:203CE00008B501211820FEF7F9F84FF48040ADF8000010208DF8030003208DF8020069460E
:203D00009E48FDF72FFE4FF480419C48FDF7D7FE4FF40050ADF8000010208DF803000320D8
:203D20008DF8020069469548FDF71CFE4FF400519248FDF7C4FE4FF40040ADF800001020E6
:203D40008DF8030003208DF8020069468B48FDF709FE4FF400418948FDF7B1FE4FF48050A9
:203D6000ADF8000010208DF8030003208DF8020069468248FDF7F6FD4FF480517F48FDF70D
:203D80009EFE4FF48070ADF8000010208DF8030003208DF8020069467948FDF7E3FD4FF4C6
:203DA00080717748FDF78BFEFF20ADF8000010208DF8030003208DF8020069467048FDF755
:203DC000D1FDFF216E48FDF77AFE08BD10B5FFF787FF4FF480716A48FDF773FE0120FFF76B
:203DE000C7FE4FF480716648FDF769FE4FF400416248FDF766FE4020FFF7C6FE002405E018
:203E00006049085DFFF7F4FE601CC4B2082CF7DB4020FFF7B9FE002405E0FFF730FF5A49D6
:203E20000855601CC4B2082CF7DB4420FFF7ACFE002405E05549085DFFF7DAFE601CC4B25D
:203E40000A2CF7DB00215A20FFF706FF0C215B20FFF702FF5D20FFF797FE48F60770FFF772
:203E600005FF4C20FFF790FE04215920FFF7F4FE10BD10B5044604F14C01C8B2FFF784FEB8
:203E800010BD10B504464620FFF77EFE2046FFF7EDFE10BD10B504464220FFF775FE20461A
:203EA000FFF7A6FE10BD70B506460C464220FFF76BFE002504E03046FFF79AFE681C85B24F
:203EC000A542F8DB70BD10B54320FFF75DFEFFF7D6FE10BD2DE9F04107460D46164638462A
:203EE000FFF7CFFF4320FFF74FFE002404E0FFF7C6FE3055601C84B2AC42F8DBBDE8F08188
:203F000010B504464620FFF73FFE2046FFF7AEFE4220FFF739FE10BD70B505460C4646206D
:203F2000FFF732FE2846FFF7A1FE4220FFF72CFE2046FFF75DFE1648445570BD144A115438
:203F4000704701461248405C70472DE9F04107460C4615464620FFF717FE2846FFF786FE1C
:203F60004220FFF711FE002604E03846FFF740FE701C86B2A642F8DBBDE8F081000C01403C
:203F8000001001403C000020A032002044000020363300200246FE480078401E4FF4165385
:203FA000584300EBD20001EB810300EBC30080B2704710B50346501E4FF41654604300EBEB
:203FC000D30001EB810400EBC40080B210BD024602F0070380201841704710B50020FFF720
:203FE0008FFF002406E00020FFF702FE0020E9490855641CB4F5165FF5D310BD2DE9F047E4
:2040000006460F46144639463046FFF7C3FF814639463046FFF7DBFF05464CB94846FFF798
:2040200090FF20EA050841464846FFF775FF08E04846FFF786FF40EA050841464846FFF728
:204040006BFFBDE8F087F0B504460D4629462046FFF7A0FF074629462046FFF7B8FF064613
:204060003846FFF76EFF304008B10120F0BD0020FCE72DE9FF4F81B0044615469B462046E4
:204080000299FFF787FF8046BBF1000F68D02946EA1705EB5272D2102046E31704EB537335
:2040A000A2EBE30296B2002E3BDD4046FFF749FFA146E11704EB5171C910A4EBC102FF2161
:2040C000114140EA010A51464046FFF725FF00270AE0FF20FFF78CFDFF2108EB0700401CFD
:2040E000AC4A1154781C87B2701EB842F1DC08EB060188B2FFF725FFA946E91705EB517154
:20410000C910A5EBC101C1F10702FF219140084300F0FF0A08EB060188B25146FFF7FCFEC9
:2041200087E04046FFF70DFFA246E11704EB5171C910A4EBC102FF211141A946EA1705EB82
:204140005272D210A5EBC202C2F10703FF229A4011400843014600904046FFF7DDFE68E09B
:204160002946EA1705EB5272D2102046E31704EB5373A2EBE30296B2002E3ADD4046FFF7A9
:20418000E0FEA146E11704EB5171C910A4EBC102FF21114120EA010A51464046FFF7BCFE32
:2041A00000270AE00020FFF723FD002108EB0700401C784A1154781C87B2701EB842F1DCF8
:2041C00008EB060188B2FFF7BCFEA946E91705EB5171C910A5EBC101C1F10702FF21914083
:2041E00020EA010A08EB060188B25146FFF794FE1FE04046FFF7A5FEA246E11704EB5171A8
:20420000C910A4EBC102FF211141C943A946EA1705EB5272D210A5EBC202C2F10703FF223D
:204220009A4061EA02010840014600904046FFF773FE05B0BDE8F08F2DE9FF5F8846914658
:204240009B464F20FFF7A0FC41460098FFF7A2FE82465046FFF754FEBBF1000F1CD04146F3
:204260000098FFF7B4FE074600240FE0282000FB04A085B22846FFF764FE40EA070630460D
:20428000FFF7B6FC43484655601C84B2A9EB0800401CA042EADC1CE041460098FFF797FE58
:2042A000C043C7B200240FE0282000FB04A085B22846FFF746FE00EA07063046FFF798FCB2
:2042C00034484655601C84B2A9EB0800401CA042EADC4C20FFF758FCBDE8FF9F2DE9F04135
:2042E00006460C4617461D46DDF8188066B95CB940F23F10874207D1EF2D05D1B8F1000FF3
:2043000002D1FFF76AFE0AE007E043463A4621463046FFF7AEFE601C84B2AC42F5DDBDE8FC
:20432000F0812DE9FF4F83B005461446DDF840A028460499FFF72EFE80462846E91705EBCA
:204340005171C910A5EBC10101F0FF0BBBF1000F72D1002682E006EB860108EBC10188B288
:20436000FFF7CEFD00271CE0601EC11700EB5171C910491C06FB01A111F8079006EB86015D
:2043800008EBC101394488B24946FFF7D7FD03E04E000020363300204846FFF729FC781C41
:2043A00087B2E11704EB5171B7EBE10FDCDBE11704EB5171C910A4EBC101E1B3621ED11703
:2043C00002EB517106EB860308EBC30303EBE10188B2FFF7B6FD81462046E11704EB517172
:2043E000C910A4EBC102FF21114101EA0909621ED31702EB5373DB105B1C06FB03AC611E75
:20440000CB1701EB5373DB101CF803304FEAE47C04EB5C7C4FEAEC0CA4EBCC0CCCF1080E0B
:204420004FF0FF0C0CFA0EFC03EA0C0343EA0909631ED91701E00FE015E003EB517106EB10
:20444000860208EBC20202EBE10188B24946FFF775FD4846FFF7CCFB701C86B206988642A8
:20446000FFF679AF1FE1002619E106EB860108EBC10188B2FFF744FD06EB860108EBC10134
:2044800088B2FFF75EFD81462846E91705EB5171C910A5EBC101C1F10802FF21914001EAE7
:2044A0000909611ECA1701EB5272D210521C72431AF80220EB1705EB5373DB10A5EBC303A8
:2044C0001A4142EA090906EB860108EBC10188B24946FFF733FD4846FFF78AFB012729E0ED
:2044E000601EC11700EB5171C910491C06FB01A1394411F8011CCBF10802914001F0FF09A5
:20450000C11700EB5171C910491C06FB01A1C95D41FA0BF141EA090906EB860108EBC1016E
:20452000394488B24946FFF709FD4846FFF760FB781C87B2EA1705EB5272D210A5EBC202A2
:204540001119CA1701EB5272B7EBE20FC8DB2819C11700EB5171C910A0EBC10100297DD008
:2045600029194B1ED91703EB517106EB860C08EBCC0C0CEBE1012A464FEAE57C05EB5C7CF7
:20458000A1EBEC0188B2FFF7DCFC81462819C11700EB5171C910A0EBC102FF21114101EA89
:2045A0000909E11704EB5171C910491CCBEBC702C2EBC10108293CDD621ED31702EB5373AD
:2045C000DB105B1C06FB03AC611ECB1701EB5373DB101CF8033043FA0BF320464FEAE47C4A
:2045E00004EB5C7C4FEAEC0CA4EBCC0CCBF1080EAEEB0C0E4FF0FF0C0CFA0EFC03EA0C0381
:204600008C464FEAEC7ECDF804C00CEB5E7C4FEAEC0C0CF1010C06FB0CACBC441CF801CCF6
:20462000CBF1080E0CFA0EFC43EA0C03DBB202931FE0611ECA1701EB5272D210521C06FBDA
:2046400002A23A4412F8012CC4EBC70CFF2303FA0CF31A402B19581CC31700E01DE000EBAD
:204660005373DB10A0EBC303C3F108039A40D2B20292029849EA0009631ED91703EB517190
:2046800006EB860208EBC20202EBE10188B24946FFF754FC4846FFF7ABFA701C86B2069881
:2046A0008642FFF6E2AE07B0BDE8F08F2DE9FF4F83B005461446DDF840A02846119A04992B
:2046C000FFF777FC80462846E91705EB5171C910A5EBC10101F0FF0BBBF1000F6FD1002644
:2046E0007DE006EB860108EBC10188B2FFF708FC002717E0601EC11700EB5171C910491C9D
:2047000006FB01A111F8079006EB860108EBC101394488B24946FFF711FC4846FFF768FAFA
:20472000781C87B2E11704EB5171B7EBE10FE1DBE11704EB5171C910A4EBC101F1B3621EBE
:20474000D11702EB517106EB860308EBC30303EBE10188B2FFF7F5FB81462046E11704EB8B
:204760005171C910A4EBC102FF21114101EA0909621ED31702EB5373DB105B1C06FB03ACAE
:20478000611ECB1701EB5373DB101CF803304FEAE47C04EB5C7C4FEAEC0CA4EBCC0CCCF11F
:2047A000080E4FF0FF0C0CFA0EFC03EA0C0343EA0909631ED91703EB517101E00DE013E06C
:2047C00006EB860208EBC20202EBE10188B24946FFF7B4FB4846FFF70BFA701C86B2069881
:2047E0008642FFF67EAF1FE1002619E106EB860108EBC10188B2FFF783FB06EB860108EB69
:20480000C10188B2FFF79DFB81462846E91705EB5171C910A5EBC101C1F10802FF2191404F
:2048200001EA0909611ECA1701EB5272D210521C72431AF80220EB1705EB5373DB10A5EBFF
:20484000C3031A4142EA090906EB860108EBC10188B24946FFF772FB4846FFF7C9F9012732
:2048600029E0601EC11700EB5171C910491C06FB01A1394411F8011CCBF10802914001F020
:20488000FF09C11700EB5171C910491C06FB01A1C95D41FA0BF141EA090906EB860108EBA5
:2048A000C101394488B24946FFF748FB4846FFF79FF9781C87B2EA1705EB5272D210A5EBA7
:2048C000C2021119CA1701EB5272B7EBE20FC8DB2819C11700EB5171C910A0EBC10100290E
:2048E0007DD029194B1ED91703EB517106EB860C08EBCC0C0CEBE1012A464FEAE57C05EBFF
:204900005C7CA1EBEC0188B2FFF71BFB81462819C11700EB5171C910A0EBC102FF211141DA
:2049200001EA0909E11704EB5171C910491CCBEBC702C2EBC10108293CDD621ED31702EB04
:204940005373DB105B1C06FB03AC611ECB1701EB5373DB101CF8033043FA0BF320464FEA60
:20496000E47C04EB5C7C4FEAEC0CA4EBCC0CCBF1080EAEEB0C0E4FF0FF0C0CFA0EFC03EAAC
:204980000C038C464FEAEC7ECDF804C00CEB5E7C4FEAEC0C0CF1010C06FB0CACBC441CF831
:2049A00001CCCBF1080E0CFA0EFC43EA0C03DBB202931FE0611ECA1701EB5272D210521C8B
:2049C00006FB02A23A4412F8012CC4EBC70CFF2303FA0CF31A402B19581CC31700E01DE014
:2049E00000EB5373DB10A0EBC303C3F108039A40D2B20292029849EA0009631ED91703EBE4
:204A0000517106EB860208EBC20202EBE10188B24946FFF793FA4846FFF7EAF8701C86B25F
:204A200006988642FFF6E2AE07B0BDE8F08F000010B504466FF00400FBF767FFE11704EBFF
:204A40005171C1F3C701234A11701046007800EB4001C1EBC0104FF6FF7101EAC0001E49ED
:204A6000088010BD01461C4A12884A434FF0E0235A6100229A6101221A6100BF4FF0E02255
:204A8000106900F001021AB100F48032002AF5D000224FF0E0231A619A61704701460D4A1B
:204AA00012784A434FF0E0235A6100229A6101221A6100BF4FF0E022106900F001021AB1F0
:204AC00000F48032002AF5D000224FF0E0231A619A6170475000002052000020014600BFC8
:204AE000704700BFA04A128802F04002002AF9D0C2B29D4B1B1D1A80704710B586B004466B
:204B0000012144F20500FDF7E9F94FF40070ADF8140003208DF8160018208DF8170005A9B6
:204B20009248FCF71FFF4FF48060ADF8140004208DF8170005A98D48FCF714FF25208DF89B
:204B4000000003208DF801008DF8020001208DF803006846FBF78FFE01940020ADF80800ED
:204B6000ADF80A00ADF80C00ADF810000C20ADF80E0001A97C48FEF766F9012240F22551B4
:204B80007948FEF7F8F901217748FEF7E8F906B010BD10B540F225517348FEF7D1FA10B389
:204BA0007148FEF74DFAC4B27148007800F08000C8B96F48007800F0400060B10A2C03D0EF
:204BC00000206B49087020E06948007840F080006749087019E00D2C06D16548007840F02A
:204BE00040006349087010E06148007800F03F0060490C545E480078401C5D490870084622
:204C000000783F2801DD0020087010BD10B586B0044601210920FDF761F901218804FDF7F2
:204C20006AF94FF48060ADF8140003208DF8160018208DF8170005A94F48FCF793FE4FF497
:204C40000060ADF8140048208DF8170005A94A48FCF788FE01940020ADF80800ADF80A006D
:204C6000ADF80C00ADF810000C20ADF80E0001A94248FEF7E8F801214048FEF770F906B028
:204C800010BD10B5044600BF3C48008800F080000028F9D021463948FEF7CEF910BD38B5AE
:204CA00037A000680090002404E01DF80400FFF7E8FF641C032CF8DB38BD70B59AB00546F6
:204CC0002A4630A101A80BF003FB28460BF08CFC0646002405E001A9085DFFF7D2FF601C59
:204CE000C4B2282CF7DB1AB070BD70B59AB005462A4624A101A80BF0EBFA01A80BF074FC95
:204D00000646002405E001A9085DFFF7BAFF601CC4B2B442F7D31AB070BD70B505460E4613
:204D2000002409E0132C02DD1A2C00DA03E0285DFFF7A7FF00BF641CB442F3DB70BD70B5CF
:204D400005460E4600240BE0295D0748FEF774F900BF40210448FEF7DDF90028F9D0641CC6
:204D6000B442F1D370BD0000003801400008014058000020367E0020000C01400048004069
:204D80001B4D01002573000000B587B001214FF40170FDF7A3F84FF40040FDF703F801202E
:204DA000ADF8040000208DF8070001A92548FCF7D9FD2548FBF7C8FD002002908DF80C0057
:204DC0008DF80D004FF4602004900020059001208DF8180002A91C48FBF7DDFD01211A4818
:204DE000FBF705FE1848FBF724FE00BF1648FBF725FE0028FAD11448FBF72AFE00BF124896
:204E0000FBF72BFE0028FAD101210F48FBF72FFE07B000BD10B504460723012221460A4863
:204E2000FBF751FE01210848FBF721FE00BF02210548FBF78DFF0028F9D00348FBF7AAFE2B
:204E400010BD000000080140002401401FB501210420FDF743F81E20ADF80C0048208DF8B2
:204E60000F0003A9FB48FCF77DFD01210420FDF735F80820ADF80C0048208DF80F0003A9DF
:204E8000F448FCF76FFD03210020FCF781FE0820019000208DF808000C208DF80900012080
:204EA0008DF80A0001A8FCF77DFC4FF4C060FBF7DDFC09208DF8000000208DF801008DF847
:204EC000020001208DF803006846FBF7D4FC1FBD10B5E148007858B3E048006858B1DF48AA
:204EE000001D006838B1DD480830006818B1DB480C300068E0B90A20FFF7B4FD0020D64946
:204F00000870D648006808B9012010BDD348001D006808B90220F8E7D0480830006808B909
:204F20000320F2E7CD480C300068B0B90420ECE7CA480068012810D1C848001D006801281A
:204F40000BD1C64808300068012806D1C3480C300068012801D1C04908700020D5E71FB5EC
:204F600001210420FCF7BAFF4FF41840ADF80C0048208DF80F0003A9B648FCF7F3FC0F213B
:204F80000020FCF705FE4FF40840019000208DF808000C208DF8090001208DF80A0001A81F
:204FA000FCF700FC4FF4C060FBF760FC28208DF8000000208DF801008DF8020001208DF8B1
:204FC00003006846FBF757FC1FBD2DE9F041044600BF2827052094FBF0F894FBF0F100FB59
:204FE0001146C8EBC80000EB481000F12B0515E0082000EB86170BE0092C04D1691E3846DC
:20500000FBF769FB03E029463846FBF764FB7F1C282000EB8610B842EEDC6D1CC8EBC800ED
:2050200000EB48104B30A842E2DCBDE8F0812DE9F04705468A462B264FF02809052095FB16
:20504000F0F795FBF0F100FB11544FF00008092D0CD1C7EBC70202EB471202F12A01082235
:2050600002EB8410FBF714F980460BE0C7EBC70202EB471202F12B01082202EB8410FBF782
:2050800007F98046BAF1010F04D1B8F1010F05D1BDE8F087B8F1000F00D1F9E7C7EBC7002D
:2050A00000EB471000F12B0616E0082000EB84190CE0092D04D1711E4846FBF70CFB03E0F6
:2050C00031464846FBF707FB09F10109282000EB84104845EDDC761CC7EBC70000EB471069
:2050E0004B30B042E1DC00BFD2E710B55C48006801283CD1594828300068002837D1142042
:20510000FFF7CCFC55482C30006801280ED155480068401C5349086008460068192801D13A
:205120000020086050A00BF0C7F811E04B482C30006868B94B480068401E4A490860084632
:205140000068401C08B91820086049A00BF0B4F849480068FFF739FF42480068FFF735FF57
:20516000404800684449086000203D49086001204249086010BD10B539480068012812D1A1
:2051800000203E4908603E48006840F60D0188420AD13C48B0F9000009F06EFC012140F641
:2051A000040005F046FF7CE03548006840F60E0188420AD13448B0F9000009F05DFC0121ED
:2051C00040F6040005F035FF6BE02D48006840F60F0188420AD12D48B0F9000009F04CFCFA
:2051E000012140F6040005F024FF5AE02448006840F6110188420AD12548B0F9000009F031
:205200003BFC012140F6040005F013FF49E01C48006840F6130188420AD11E48B0F9000001
:2052200009F02AFC012140F6040005F002FF38E01348006840F6150188422FD11648B0F905
:20524000000009F019FC012140F6040005F0F1FE27E00000000801406000002004012142C8
:20526000D00000202401002072696768740D0A006C6566740D0A0000280100205C0000203D
:20528000C4000020AE000020B0000020B8000020BC000020B6000020C00000205AA00BF02D
:2052A0000BF810BD10B55C480068002820D10A20FFF7D8FB584800680028F7D157A00AF058
:2052C000FBFF5848006840F60D0188421DD156480068012813D1554855490968405C40B97C
:2052E0000020544908600120534908605349086083E00120514908604E4908607DE001205D
:205300004E4908604B49086077E04648006840F60E0188420AD14A48B0F9000009F0ACFB80
:20532000012140F60C0005F084FE66E03D48006840F60F0188420AD14248B0F9000009F048
:205340009BFB012140F60C0005F073FE55E035480068B0F5016F0DD10120384908603A4854
:20536000B0F9000009F088FB012140F60C0005F060FE42E02B48006840F6110188420AD167
:205380003248B0F9000009F077FB012140F60C0005F04FFE31E02348006840F612018842E2
:2053A0000AD12B48B0F9000009F066FB012140F60C0005F03EFE20E01A48006840F61301F3
:2053C000884203D101201D49086016E01548006840F6150188420DD10120184908601D4842
:2053E000B0F9000009F048FB012140F60C0005F020FE02E004A00AF05FFF17A00AF05CFF67
:2054000000201849086010BDC2DFBCADB3F6CECACCE2C1CB000000003C012142656E746505
:20542000720D0A00C4000020300100208A7E00202401002020010020180100203C0100206A
:20544000B0000020B8000020BA000020BC000020BE000020C0000020656E74657231312090
:20546000200D0A00D400002008B501211020FCF735FD4FF40070ADF8000010208DF80300BD
:2054800003208DF8020069460448FCF76BFA4FF400710248FCF713FB08BD000000100140FA
:2054A00000B585B001210820FCF718FD4FF40070ADF8100010208DF8130003208DF81200C6
:2054C00004A9F948FCF74EFA01210820FCF706FD4FF48070ADF8100010208DF81300032090
:2054E0008DF8120004A9F048FCF73CFA4FF4E060FBF7BCF91C208DF80C0000208DF80D005E
:2055000003208DF80E0001208DF80F0003A8FBF7B2F901210846FCF7EEFC4FF08040FCF799
:2055200041FD42F21070ADF8040040F2CF20ADF800000020ADF80600ADF8020069464FF0AA
:205540008040FCF703FE01218807FDF721FC012211469007FDF771F901218807FDF752F976
:2055600001210846FCF7C7FC05B000BD3221484300BF411E081EFCD1704708B54FF400707D
:20558000ADF8000010208DF8030003208DF802006946C548FCF7E6F908BD10B5FFF7EDFF0A
:2055A000C1480C30006820F40070BF490C3108600846006820F4807008600420FFF7D6FFFC
:2055C000B9480C30006840F40070B7490C3108600846006840F4807008600420FFF7C6FFBC
:2055E00010BD10B5B0480C30006820F48070AE490C310860FFF7C1FFAB480C30006840F45C
:205600000070A9490C3108600220FFF7AFFFA6480C30006840F48070A3490C310860022054
:20562000FFF7A4FFA0480C30006820F480709E490C31086010BD10B59B480C30006820F488
:20564000807099490C310860FFF797FF96480C30006820F4007094490C3108600220FFF7A7
:2056600085FF91480C30006840F480708E490C3108600220FFF77AFF8B480C30006820F46D
:20568000807089490C31086010BD08B54FF40070ADF8000048208DF8030002208DF8020028
:2056A00069468148FCF75EF908BD70B505460024FFF7EBFF002620E07B480C30006820F44E
:2056C000807079490C3108600220FFF74FFF76480C30006840F4807073490C3108606006C0
:2056E000040E081F0068C0F3402008B1601CC4B20220FFF73BFF701CC6B2082EDCDB15B142
:20570000FFF799FF01E0FFF76CFF204670BD10B50024FFF7BAFF64480C30006840F400709A
:2057200061490C3108600120FFF720FF5E480C30006840F480705C490C3108600120FFF715
:2057400015FF0AE0601CC4B2322C03DDFFF725FF012010BD0120FFF709FF534808300068B9
:20576000C0F340200028EDD14F480C30006820F480704D490C3108600020EAE770B5044656
:20578000FFF7FBFE48480C30006820F4807046490C31086000252BE043480C30006820F43B
:2057A0000070E10911B14FF4007100E0002108433D490C3108606006040E0220FFF7D6FE3E
:2057C00039480C30006840F4807037490C3108600220FFF7CBFE34480C30006820F4807056
:2057E00031490C3108600220FFF7C0FE681CC5B2082DD1DB70BD10B5FFF7BFFE2A480C3085
:20580000006840F4007028490C3108600846006840F4807008600420FFF7A8FE22480C30BE
:20582000006820F4007020490C3108600420FFF79DFE1D480C30006820F480701A490C310C
:20584000086010BD2DE9F0410746884615461E460024FFF7D0FF3846FFF790FFFFF757FFBA
:205860004046FFF78BFFFFF752FFFFF7C4FF791CC8B2FFF783FFFFF74AFF00BF0DE0681E2A
:20588000A04204D00120FFF710FF305503E00020FFF70BFF3055601CC4B2AC42EFDBFFF77F
:2058A0007CFE2046BDE8F081000C01401CB504466B4607220221A220FFF7C4FF9DF800007D
:2058C00000F07F008DF800009DF8000000F00F009DF80010091101EB810100EB4100C0B275
:2058E0008DF800009DF8000020709DF8010000F07F008DF801009DF8010000F00F009DF849
:205900000110091101EB810100EB4100C0B28DF801009DF8010060709DF8020000F03F009E
:205920008DF802009DF8020000F00F009DF80210091101EB810100EB4100C0B28DF80200F6
:205940009DF80200A0709DF8030000F03F008DF803009DF8030000F00F009DF803100911F8
:2059600001EB810100EB4100C0B28DF803009DF80300E0709DF8040000F007008DF8040092
:205980009DF8040000F00F009DF80410091101EB810100EB4100C0B28DF804009DF804007E
:2059A00020719DF8050000F01F008DF805009DF8050000F00F009DF80510091101EB810158
:2059C00000EB4100C0B28DF805009DF8050060719DF8060000F00F009DF80610091101EBE9
:2059E000810100EB4100C0B28DF806009DF80600E080E088322803DAE08800F5FA60E0804B
:205A00001CBD2DE9F04180460D4616461F460024FFF7F1FE4046FFF7B1FEFFF778FE28467E
:205A2000FFF7ACFEFFF773FE00BF06E0385DFFF7A5FEFFF76CFE601CC4B2B442F6DBFFF77D
:205A4000ACFD0120BDE8F08137B504460D4602AB012229462046FFF7D4FF3EBD13B5BDF8F7
:205A60000600B0F5FA6F06DDBDF80600A0F5FA6080B2ADF806009DF800000A2190FBF1F27A
:205A800001FB12009DF800100A2291FBF2F100EB0110C0B28DF800009DF801000A2190FB79
:205AA000F1F201FB12009DF801100A2291FBF2F100EB0110C0B28DF801009DF802000A21FE
:205AC00090FBF1F201FB12009DF802100A2291FBF2F100EB0110C0B28DF802009DF803007B
:205AE0000A2190FBF1F201FB12009DF803100A2291FBF2F100EB0110C0B28DF803009DF831
:205B000005000A2190FBF1F201FB12009DF805100A2291FBF2F100EB0110C0B28DF805009C
:205B2000BDF806000A2190FBF1F201FB1200BDF806100A2291FBF2F100EB011080B2ADF8CA
:205B400006009DF800200221A220FFF77DFF9DF801200321A220FFF777FF9DF8022004214F
:205B6000A220FFF771FF9DF803200521A220FFF76BFF9DF805200721A220FFF765FFBDF84A
:205B80000600C2B20821A220FFF75EFF1CBD70B505460E460024FFF72EFE2846FFF7EEFD1B
:205BA000641CFFF7B4FD3046FFF7E8FD641CFFF7AEFDFFF720FE691CC8B2FFF7DFFD641CE7
:205BC000FFF7A5FD0020FFF770FD0446FFF7E5FC204670BD70B505460E46144631462846F3
:205BE000FFF7D5FF2070012070BD2DE9F8430746884614461D46089E6A4641463846FFF783
:205C0000E9FF28B3601CFF2101FA00F0C4F108012944491EFF220A41104300F0FF09C5F13B
:205C2000080006FA00F0C6B2C4F1070006419DF8000000EA090000909DF800003043009041
:205C40009DF8002041463846FFF7FEFEBDE8F8830020FBE7F8B506460F4614461D466A46BB
:205C600039463046FFF7B6FF2DB10120A0409DF80010084305E00120A0409DF8001021EA1F
:205C80000000C0B200909DF8002039463046FFF7DBFEF8BD2DE9F0410446B4F9047020689A
:205CA0000F280AD004DC012828D00E2861D129E01E2826D026285CD143E006F013FE00225E
:205CC0001146F84804F0EAFD384607F0F0FAF648B0F9000008F0D0FE0021F4480068FFF78B
:205CE000A6F90121F2480068FFF7A1F9F0480068EE4908600020EF4908603EE008F083F821
:205D00003BE03AE0A06800680D280CD01B2805D0A0F6040060B1082811D10CE0012138466C
:205D200009F06BF80BE00021384609F066F806E0FFF7DBF903E0E0A00AF0BEFA00BF00BFE3
:205D40001BE0B4F9060008F0BEFB0646A568012E02D0022E0BD103E0022D00D107E000BFF5
:205D6000022D03D10021384609F047F800BF00BF03E0204608F051F800BF00BFBDE8F081AD
:205D80002DE9F0410446B4F9047020680F280AD004DC01280DD00E283CD10EE01E280BD080
:205DA000262837D11BE000221146C74804F076FD34E008F028F831E030E0A06800680D28B1
:205DC00006D01B2809D10121384609F016F804E00021384609F011F800BF00BF1EE0B4F97B
:205DE000060008F070FB0646A568012E02D0022E0ED106E0022D03D10021384608F0FDFF55
:205E000006E0022D03D10021384608F0F6FF00BF00BF03E0204608F000F800BF00BFBDE833
:205E2000F0812DE9F04194B00446B4F9047020680F280AD004DC01280DD00E287ED10EE009
:205E40001E280BD02628F9D1C9E0002211469E4804F024FDE3E007F0D6FFE0E0DFE0A068D6
:205E600000680D280BD01B2804D0A0F60500002804D109E00121384608F0BFFFADE000210E
:205E8000384608F0BAFFA8E0384607F010FA384608F0F2FD07F0EBFC804641468BA00AF017
:205EA0000BFA8F48006840F60D0188421BD105A8FFF7FCFC9DF814009DF815109DF81620DB
:205EC0009DF81730CDE90032CDE902109DF81930BDF81A2083A107A80AF0FAF90322AF21B4
:205EE00007A804F08FFB07F0C2FC8046414684A00AF0E2F988480068012837D10020864922
:205F0000086006F0EFFC384608F062FC9DF814009DF815209DF816109DF81730CDE9003173
:205F2000CDE902209DF81930BDF81A206DA107A80AF0CEF90322AF2107A800E06BE004F07B
:205F400061FB7648C06875498968CDE900107348436873A1026807A80AF0BAF914220221F1
:205F600007A804F04FFB07F04EFF35E076480068012831D1002074490860744908680AF01E
:205F8000E3FA80B2ADF81200704948680AF0DCFAC0B28DF811006D4988680AF0D5FAC0B219
:205FA0008DF80F006949C8680AF0CEFAC0B28DF80E00664908690AF0C7FAC0B28DF80D00C5
:205FC000624948690AF0C0FAC0B28DF80C00DDE90301FFF743FD00BF00BF00BF1FE0B4F9C5
:205FE000060008F070FA0646A5683046012E02D002280ED106E0022D03D10021384608F0E0
:20600000FCFE06E0022D03D10021384608F0F5FE00BF00BF03E0204607F0FFFE00BF00BFDA
:2060200000204B49086014B0BDE8F0812DE9F0410446B4F9047020680F280AD004DC012816
:206040000DD00E282CD10EE01E280BD0262827D11BE0642200213F4804F020FC90E007F03B
:20606000D2FE8DE08CE0A06800680D2806D01B2809D10121384608F0C0FE04E00021384606
:2060800008F0BBFE00BF00BF7AE0B4F9060008F01AFA0646A568012E5ED0022E6AD162E055
:2060A0006AE00000BCAC0108AE00002028010020240100203C0100206B6579203D20656ED3
:2060C0007465720D0A000000D0AC0108726566726573682074696D652025640D0A0000005B
:2060E000C400002025642F253032642F2530326420253032643A253032643A2530326400AA
:206100006163746976652077696E646F77203A2564200D0A00000000CC000020D80000204D
:20612000202020D0D4B1F03A257320C4EAC1E43A257320BBE9B7F13A257320CCE5D0CD3ABD
:2061400025732020202000000C010020F400002038010020A8AC0108022D03D1002138468E
:2061600008F04BFE06E0022D03D10021384608F044FE00BF00BF03E0204607F04EFE00BF53
:2061800000BF002021490860BDE8F0811FB506F0A9FB002008F058FC042008F03BFC0020EB
:2061A0000222CDE90020F0234FF4A0720146029007F047FB164908804FF47A70FEF752FC14
:2061C000002014490222124BB3F90030CDE90032CDE9021025234FF4A072014607F097FAC9
:2061E0000D4908800020AFF253510222084BB3F90030CDE90032CDE90210CB234FF4A07216
:20620000252107F084FA054908801FBD38010020AC000020235E0008B2000020AE000020C3
:2062200070B50446B4F904506FF07F4004F05CFF01236C221946184605F0A8FA9C236C222E
:206240000121104605F0A2FA12236C221946012005F09CFA9C236C221946012005F096FA15
:206260008B236C221946012005F090FA9C2301221146104605F08AFA70BD2DE9F04105461C
:20628000B5F9046000220121304609F065FA0021304609F0A5FA0E21304609F084F900216F
:2062A000304609F0FBFA0021304609F0ABFA4FF4B071304608F0F1F80746002109F0F5FB33
:2062C0004FF4B071304608F0E8F807466FF07F4109F033FC4FF4B071304608F0DEF8074683
:2062E0000E2109F01BFC40F66401304608F0D5F807466FF07F4109F0D8FB40F66401304640
:2063000008F0CBF80746002109F017FC40F66401304608F0C2F807460E2109F0FFFB40F6E0
:206320006501304608F0B9F80746002109F0BDFB40F66501304608F0B0F807466FF07F419B
:2063400009F0FBFB40F66501304608F0A6F807460E2109F0E3FB40F66601304608F09DF8B3
:206360000746002109F0A1FB40F66601304608F094F807466FF07F4109F0DFFB40F66601A7
:20638000304608F08AF807460E2109F0C7FB40F66701304608F081F80746002109F085FB6A
:2063A00040F66701304608F078F807466FF07F4109F0C3FB40F66701304608F06EF807467F
:2063C0000E2109F0ABFB40F66801304608F065F80746002109F069FB40F66801304608F0AD
:2063E0005CF807466FF07F4109F0A7FB40F66801304608F052F807460E2109F08FFB40F6B6
:206400006901304608F049F80746002109F04DFB40F66901304608F040F807466FF07F4102
:2064200009F08BFB40F66901304608F036F807460E2109F073FB40F66A01304608F02DF88A
:206440000746002109F031FB40F66A01304608F024F807466FF07F4109F06FFB40F66A010E
:20646000304608F01AF807460E2109F057FB40F66B01304608F011F80746002109F015FB45
:2064800040F66B01304608F008F807466FF07F4109F053FB40F66B01304607F0FEFF0746E0
:2064A0000E2109F03BFB40F66C01304607F0F5FF0746002109F0F9FA40F66C01304607F010
:2064C000ECFF07466FF07F4109F037FB40F66C01304607F0E2FF07460E2109F01FFB40F684
:2064E0006D01304607F0D9FF0746002109F0DDFA40F66D01304607F0D0FF07466FF07F415F
:2065000009F01BFB40F66D01304607F0C6FF07460E2109F003FB40F66E01304607F0BDFF55
:206520000746002109F0C1FA40F66E01304607F0B4FF07466FF07F4109F0FFFA40F66E0171
:20654000304607F0AAFF07460E2109F0E7FA4FF4B171304607F0A1FF0746002109F0A5FA57
:206560004FF4B171304607F098FF07466FF07F4109F0E3FA4FF4B171304607F08EFF0746C4
:206580000E2109F0CBFA40F26311304607F085FF0746002109F089FA40F26311304607F07A
:2065A0007CFF07466FF07F4109F0C7FA40F26311304607F072FF07460E2109F0AFFA4FF455
:2065C000B271304607F069FF0746002109F06DFA4FF4B271304607F060FF07466FF07F4157
:2065E00009F0ABFA4FF4B271304607F056FF07460E2109F093FA40F26511304607F04DFF72
:206600000746002109F051FA40F26511304607F044FF07466FF07F4109F08FFA40F26511DA
:20662000304607F03AFF07460E2109F077FA4FF4B371304607F031FF0746002109F035FA34
:206640004FF4B371304607F028FF07466FF07F4109F073FA4FF4B371304607F01EFF07462F
:206660000E2109F05BFA4FF4B071304607F015FFF949088040F66901304607F00EFFF74994
:20668000088040F66401304607F007FFF449088040F66501304607F000FFF249088040F69E
:2066A0006601304607F0F9FEEF49088040F66701304607F0F2FEED49088040F66801304681
:2066C00007F0EBFEEA49088040F66A01304607F0E4FEE849088040F66B01304607F0DDFE8C
:2066E000E549088040F66C01304607F0D6FEE349088040F66D01304607F0CFFEE0490880BD
:2067000040F66E01304607F0C8FEDE490880DE49D148B0F9000009F0E0F9DB49CF48B0F953
:20672000000009F0DAF9D849CD48B0F9000009F0D4F9D549CB48B0F9000009F0CEF9D24933
:20674000C948B0F9000009F0C8F9CF49C748B0F9000009F0C2F9CC49C548B0F9000009F07D
:20676000BCF9C949C348B0F9000009F0B6F9C649C148B0F9000009F0B0F9C349BF48B0F9D7
:20678000000009F0AAF9C049BD48B0F9000009F0A4F9BD49BB48B0F9000009F09EF9BBA172
:2067A000AD48B0F9000009F0A6F9BBA1AB48B0F9000009F0A0F9BAA1A948B0F9000009F02B
:2067C0009AF9B9A1A748B0F9000009F094F9B8A1A548B0F9000009F08EF9B7A1A348B0F953
:2067E000000009F088F9B6A1A148B0F9000009F082F9B54801689F48B0F9000009F07BF95F
:20680000B14841689C48B0F9000009F074F9AE4881689A48B0F9000009F06DF9AA48C168FF
:206820009748B0F9000009F066F9A74801699548B0F9000009F05FF9002403E00020A34935
:206840000855641C192CF9DBBDE8F08130B585B004469F48006801285FD19E4800680028AA
:206860005BD19D480068002856D11420FEF716F99948001D006801280ED198480068401C06
:206880009649086008460068062801D10020086093A009F011FD0DE090480068401E8F49D6
:2068A000086008460068002804DA0520086092A009F002FD9648006800F66401204607F0FF
:2068C000ECFD0546002109F0F0F89148006800F66401204607F0E1FD05466FF07F4109F048
:2068E0002CF97E48006800F66401204607F0D5FD05466FF07F4109F0D8F87848006800F66A
:206900006401204607F0C9FD0546002109F015F9724800687E4908604FE26D4800680028B5
